{
  "contractName": "Airbnb",
  "abi": [
    {
      "anonymous": false,
      "inputs": [
        {
          "indexed": true,
          "internalType": "uint256",
          "name": "propertyId",
          "type": "uint256"
        },
        {
          "indexed": true,
          "internalType": "uint256",
          "name": "bookingId",
          "type": "uint256"
        }
      ],
      "name": "NewBooking",
      "type": "event"
    },
    {
      "anonymous": false,
      "inputs": [
        {
          "indexed": true,
          "internalType": "uint256",
          "name": "propertyId",
          "type": "uint256"
        }
      ],
      "name": "NewProperty",
      "type": "event"
    },
    {
      "constant": true,
      "inputs": [],
      "name": "bookingId",
      "outputs": [
        {
          "internalType": "uint256",
          "name": "",
          "type": "uint256"
        }
      ],
      "payable": false,
      "stateMutability": "view",
      "type": "function"
    },
    {
      "constant": true,
      "inputs": [
        {
          "internalType": "uint256",
          "name": "",
          "type": "uint256"
        }
      ],
      "name": "bookings",
      "outputs": [
        {
          "internalType": "uint256",
          "name": "propertyId",
          "type": "uint256"
        },
        {
          "internalType": "uint256",
          "name": "checkInDate",
          "type": "uint256"
        },
        {
          "internalType": "uint256",
          "name": "checkoutDate",
          "type": "uint256"
        },
        {
          "internalType": "address",
          "name": "user",
          "type": "address"
        }
      ],
      "payable": false,
      "stateMutability": "view",
      "type": "function"
    },
    {
      "constant": true,
      "inputs": [
        {
          "internalType": "uint256",
          "name": "",
          "type": "uint256"
        }
      ],
      "name": "properties",
      "outputs": [
        {
          "internalType": "string",
          "name": "name",
          "type": "string"
        },
        {
          "internalType": "string",
          "name": "description",
          "type": "string"
        },
        {
          "internalType": "bool",
          "name": "isActive",
          "type": "bool"
        },
        {
          "internalType": "uint256",
          "name": "price",
          "type": "uint256"
        },
        {
          "internalType": "address",
          "name": "owner",
          "type": "address"
        }
      ],
      "payable": false,
      "stateMutability": "view",
      "type": "function"
    },
    {
      "constant": true,
      "inputs": [],
      "name": "propertyId",
      "outputs": [
        {
          "internalType": "uint256",
          "name": "",
          "type": "uint256"
        }
      ],
      "payable": false,
      "stateMutability": "view",
      "type": "function"
    },
    {
      "constant": false,
      "inputs": [
        {
          "internalType": "string",
          "name": "name",
          "type": "string"
        },
        {
          "internalType": "string",
          "name": "description",
          "type": "string"
        },
        {
          "internalType": "uint256",
          "name": "price",
          "type": "uint256"
        }
      ],
      "name": "rentOutproperty",
      "outputs": [],
      "payable": false,
      "stateMutability": "nonpayable",
      "type": "function"
    },
    {
      "constant": false,
      "inputs": [
        {
          "internalType": "uint256",
          "name": "_propertyId",
          "type": "uint256"
        },
        {
          "internalType": "uint256",
          "name": "checkInDate",
          "type": "uint256"
        },
        {
          "internalType": "uint256",
          "name": "checkoutDate",
          "type": "uint256"
        }
      ],
      "name": "rentProperty",
      "outputs": [],
      "payable": true,
      "stateMutability": "payable",
      "type": "function"
    },
    {
      "constant": false,
      "inputs": [
        {
          "internalType": "uint256",
          "name": "_propertyId",
          "type": "uint256"
        }
      ],
      "name": "markPropertyAsInactive",
      "outputs": [],
      "payable": false,
      "stateMutability": "nonpayable",
      "type": "function"
    }
  ],
  "bytecode": "0x608060405234801561001057600080fd5b50610efc806100206000396000f3fe6080604052600436106100705760003560e01c8063b3e3f8031161004e578063b3e3f80314610299578063d2da7c71146102d4578063ee7a3b8e14610316578063f7b108081461034157610070565b80630a10df7c146100755780631dab301e146100a05780632c56ed2714610130575b600080fd5b34801561008157600080fd5b5061008a6104a6565b6040518082815260200191505060405180910390f35b3480156100ac57600080fd5b506100d9600480360360208110156100c357600080fd5b81019080803590602001909291905050506104ac565b604051808581526020018481526020018381526020018273ffffffffffffffffffffffffffffffffffffffff1673ffffffffffffffffffffffffffffffffffffffff16815260200194505050505060405180910390f35b34801561013c57600080fd5b506102976004803603606081101561015357600080fd5b810190808035906020019064010000000081111561017057600080fd5b82018360208201111561018257600080fd5b803590602001918460018302840111640100000000831117156101a457600080fd5b91908080601f016020809104026020016040519081016040528093929190818152602001838380828437600081840152601f19601f8201169050808301925050505050505091929192908035906020019064010000000081111561020757600080fd5b82018360208201111561021957600080fd5b8035906020019184600183028401116401000000008311171561023b57600080fd5b91908080601f016020809104026020016040519081016040528093929190818152602001838380828437600081840152601f19601f820116905080830192505050505050509192919290803590602001909291905050506104fc565b005b3480156102a557600080fd5b506102d2600480360360208110156102bc57600080fd5b810190808035906020019092919050505061069f565b005b610314600480360360608110156102ea57600080fd5b810190808035906020019092919080359060200190929190803590602001909291905050506107a8565b005b34801561032257600080fd5b5061032b610963565b6040518082815260200191505060405180910390f35b34801561034d57600080fd5b5061037a6004803603602081101561036457600080fd5b8101908080359060200190929190505050610969565b604051808060200180602001861515151581526020018581526020018473ffffffffffffffffffffffffffffffffffffffff1673ffffffffffffffffffffffffffffffffffffffff168152602001838103835288818151815260200191508051906020019080838360005b838110156104005780820151818401526020810190506103e5565b50505050905090810190601f16801561042d5780820380516001836020036101000a031916815260200191505b50838103825287818151815260200191508051906020019080838360005b8381101561046657808201518184015260208101905061044b565b50505050905090810190601f1680156104935780820380516001836020036101000a031916815260200191505b5097505050505050505060405180910390f35b60025481565b60036020528060005260406000206000915090508060000154908060010154908060020154908060030160009054906101000a900473ffffffffffffffffffffffffffffffffffffffff16905084565b610504610c6d565b6040518060c001604052808581526020018481526020016001151581526020018381526020013373ffffffffffffffffffffffffffffffffffffffff16815260200161016d6040519080825280602002602001820160405280156105775781602001602082028038833980820191505090505b50815250905080600160008054815260200190815260200160002060008201518160000190805190602001906105ae929190610cbb565b5060208201518160010190805190602001906105cb929190610cbb565b5060408201518160020160006101000a81548160ff0219169083151502179055506060820151816003015560808201518160040160006101000a81548173ffffffffffffffffffffffffffffffffffffffff021916908373ffffffffffffffffffffffffffffffffffffffff16021790555060a0820151816005019080519060200190610659929190610d3b565b50905050600080815480929190600101919050557f49b7a39e21349b16cf820bbd35d2bc2d9f04dac75faa535510fc24d172b34afd60405160405180910390a250505050565b3373ffffffffffffffffffffffffffffffffffffffff166001600083815260200190815260200160002060040160009054906101000a900473ffffffffffffffffffffffffffffffffffffffff1673ffffffffffffffffffffffffffffffffffffffff1614610776576040517f08c379a00000000000000000000000000000000000000000000000000000000081526004018080602001828103825260198152602001807f54484953204953204e4f5420594f55522050524f50455254590000000000000081525060200191505060405180910390fd5b60006001600083815260200190815260200160002060020160006101000a81548160ff02191690831515021790555050565b6000600160008581526020019081526020016000209050600115158160020160009054906101000a900460ff1615151461082d576040517f08c379a0000000000000000000000000000000000000000000000000000000008152600401808060200182810382526023815260200180610e756023913960400191505060405180910390fd5b60008390505b828110156108d4576001151582600501828154811061084e57fe5b90600052602060002090602091828204019190069054906101000a900460ff16151514156108c7576040517f08c379a0000000000000000000000000000000000000000000000000000000008152600401808060200182810382526030815260200180610e986030913960400191505060405180910390fd5b8080600101915050610833565b508282038160030154023414610952576040517f08c379a00000000000000000000000000000000000000000000000000000000081526004018080602001828103825260178152602001807f53656e7420696e73756666696369656e742066756e647300000000000000000081525060200191505060405180910390fd5b61095d848484610afc565b50505050565b60005481565b6001602052806000526040600020600091509050806000018054600181600116156101000203166002900480601f016020809104026020016040519081016040528092919081815260200182805460018160011615610100020316600290048015610a155780601f106109ea57610100808354040283529160200191610a15565b820191906000526020600020905b8154815290600101906020018083116109f857829003601f168201915b505050505090806001018054600181600116156101000203166002900480601f016020809104026020016040519081016040528092919081815260200182805460018160011615610100020316600290048015610ab35780601f10610a8857610100808354040283529160200191610ab3565b820191906000526020600020905b815481529060010190602001808311610a9657829003601f168201915b5050505050908060020160009054906101000a900460ff16908060030154908060040160009054906101000a900473ffffffffffffffffffffffffffffffffffffffff16905085565b610b04610de1565b60405180608001604052808581526020018481526020018381526020013373ffffffffffffffffffffffffffffffffffffffff1681525090508060036000600254815260200190815260200160002060008201518160000155602082015181600101556040820151816002015560608201518160030160006101000a81548173ffffffffffffffffffffffffffffffffffffffff021916908373ffffffffffffffffffffffffffffffffffffffff160217905550905050600060016000868152602001908152602001600020905060008490505b83811015610c27576001826005018281548110610bf157fe5b90600052602060002090602091828204019190066101000a81548160ff0219169083151502179055508080600101915050610bd8565b506002600081548092919060010191905055857f4f65de66b4cd3e97fb943ca503efa62b328170ad1a0aac0e9c979a164a317b3860405160405180910390a35050505050565b6040518060c00160405280606081526020016060815260200160001515815260200160008152602001600073ffffffffffffffffffffffffffffffffffffffff168152602001606081525090565b828054600181600116156101000203166002900490600052602060002090601f016020900481019282601f10610cfc57805160ff1916838001178555610d2a565b82800160010185558215610d2a579182015b82811115610d29578251825591602001919060010190610d0e565b5b509050610d379190610e1f565b5090565b82805482825590600052602060002090601f01602090048101928215610dd05791602002820160005b83821115610da157835183826101000a81548160ff0219169083151502179055509260200192600101602081600001049283019260010302610d64565b8015610dce5782816101000a81549060ff0219169055600101602081600001049283019260010302610da1565b505b509050610ddd9190610e44565b5090565b6040518060800160405280600081526020016000815260200160008152602001600073ffffffffffffffffffffffffffffffffffffffff1681525090565b610e4191905b80821115610e3d576000816000905550600101610e25565b5090565b90565b610e7191905b80821115610e6d57600081816101000a81549060ff021916905550600101610e4a565b5090565b9056fe70726f706572747920776974682074686973204944206973206e6f742061637469766570726f7065727479206973206e6f7420617661696c61626c6520666f72207468652073656c6563746564206461746573a265627a7a72315820b4ee4ca1a70f39055a0a139bc411f3fa942a9d2e94a7b28c5228d3df4831ec0664736f6c63430005100032",
  "source": "pragma solidity >=0.5.7;\n\ncontract Airbnb {\n \n  struct Property {\n  string name;\n  string description;\n  bool isActive; // is property active\n  uint256 price; // per day price in wei (1 ether = 10^18 wei)\n  address owner; // Owner of the property\n\n  // Is the property booked on a particular day,\n  // For the sake of simplicity, we assign 0 to Jan 1, 1 to Jan 2 and so on\n  // so isBooked[31] will denote whether the property is booked for Feb 1\n  bool[] isBooked;\n  }\n  // Unique and sequential propertyId for every new property\n  uint256 public propertyId;\n\n  // mapping of propertyId to Property object\n  mapping(uint256 => Property) public properties;\n\n  // INSERT struct Booking\n\n  struct Booking {\n  uint256 propertyId;\n  uint256 checkInDate;\n  uint256 checkoutDate;\n  address user;\n  }\n  uint256 public bookingId;\n\n  // mapping of bookingId to Booking object\n  mapping(uint256 => Booking) public bookings;\n\n  // This event is emitted when a new property is put up for sale\n  event NewProperty (\n    uint256 indexed propertyId\n  );\n\n  // This event is emitted when a NewBooking is made\n  event NewBooking (\n    uint256 indexed propertyId,\n    uint256 indexed bookingId\n  );\n\n  /**\n    * @dev Put up your funky space on the market\n    * @param name Name of the property\n    * @param description Short description of your property\n    * @param price Price per day in wei (1 ether = 10^18 wei)\n    */\n  \n   function rentOutproperty(string memory name, string memory description, uint256 price) public {\n  Property memory property = Property({\n    name: name,\n    description: description,\n    isActive: true,\n    price: price,\n    owner: msg.sender,\n    isBooked: new bool[](365)\n  });\n\n  // Persist `property` object to the \"permanent\" storage\n  properties[propertyId] = property;\n\n  // emit an event to notify the clients\n  emit NewProperty(propertyId++);\n}\n\n  /**\n   * @dev Make an Airbnb booking\n   * @param _propertyId id of the property to rent out\n   * @param checkInDate Check-in date\n   * @param checkoutDate Check-out date\n   */\nfunction rentProperty(uint256 _propertyId, uint256 checkInDate, uint256 checkoutDate) public payable {\n  // Retrieve `property` object from the storage\n  Property storage property = properties[_propertyId];\n\n  // Assert that property is active\n  require(\n    property.isActive == true,\n    \"property with this ID is not active\"\n  );\n\n  // Assert that property is available for the dates\n  for (uint256 i = checkInDate; i < checkoutDate; i++) {\n    if (property.isBooked[i] == true) {\n      // if property is booked on a day, revert the transaction\n      revert(\"property is not available for the selected dates\");\n    }\n  }\n\n  // Check the customer has sent an amount equal to (pricePerDay * numberOfDays)\n  require(\n    msg.value == property.price * (checkoutDate - checkInDate),\n    \"Sent insufficient funds\"\n  );\n  _createBooking( _propertyId, checkInDate, checkoutDate);\n}\n\n  function _sendFunds (address beneficiary, uint256 value) internal {\n    // address(uint160()) is a weird solidity quirk\n    // Read more here: https://solidity.readthedocs.io/en/v0.5.10/050-breaking-changes.html?highlight=address%20payable#explicitness-requirements\n    address(uint160(beneficiary)).transfer(value);\n  }\n\n function _createBooking(uint256 _propertyId, uint256 checkInDate, uint256 checkoutDate) internal {\n  // Create a new booking object\n  Booking memory booking = Booking({\n    propertyId: _propertyId,\n    checkInDate: checkInDate,\n    checkoutDate: checkoutDate,\n    user: msg.sender\n  });\n\n  // persist to storage\n  bookings[bookingId] = booking;\n\n  // Retrieve `property` object from the storage\n  Property storage property = properties[_propertyId];\n\n  // Mark the property booked on the requested dates\n  for (uint256 i = checkInDate; i < checkoutDate; i++) {\n    property.isBooked[i] = true;\n  }\n\n  // Emit an event to notify clients\n  emit NewBooking(_propertyId, bookingId++);\n}\n  /**\n   * @dev Take down the property from the market\n   * @param _propertyId Property ID\n   */\n  function markPropertyAsInactive(uint256 _propertyId) public {\n    require(\n      properties[_propertyId].owner == msg.sender,\n      \"THIS IS NOT YOUR PROPERTY\"\n    );\n    properties[_propertyId].isActive = false;\n  }\n}\n",
  "sourcePath": "/home/ubuntu/Airbnb-Dapp/Airbnb-India/contracts/Airbnb.sol",
  "compiler": {
    "name": "solc",
    "version": "0.5.16+commit.9c3226ce.Emscripten.clang"
  },
  "schemaVersion": "3.1.0",
  "updatedAt": "2020-04-11T08:57:43.250Z",
  "networkType": "ethereum",
  "devdoc": {
    "methods": {
      "markPropertyAsInactive(uint256)": {
        "details": "Take down the property from the market",
        "params": {
          "_propertyId": "Property ID"
        }
      },
      "rentOutproperty(string,string,uint256)": {
        "details": "Put up your funky space on the market",
        "params": {
          "description": "Short description of your property",
          "name": "Name of the property",
          "price": "Price per day in wei (1 ether = 10^18 wei)"
        }
      },
      "rentProperty(uint256,uint256,uint256)": {
        "details": "Make an Airbnb booking",
        "params": {
          "_propertyId": "id of the property to rent out",
          "checkInDate": "Check-in date",
          "checkoutDate": "Check-out date"
        }
      }
    }
  },
  "userdoc": {
    "methods": {}
  }
}